{"abi":[{"type":"constructor","inputs":[{"name":"target_oracle","type":"address","internalType":"contract IPriceOracle"},{"name":"usdcAddress","type":"address","internalType":"address"}],"stateMutability":"nonpayable"},{"type":"receive","stateMutability":"payable"},{"type":"function","name":"borrow","inputs":[{"name":"token","type":"address","internalType":"address"},{"name":"amount","type":"uint256","internalType":"uint256"}],"outputs":[],"stateMutability":"nonpayable"},{"type":"function","name":"deposit","inputs":[{"name":"token","type":"address","internalType":"address"},{"name":"amount","type":"uint256","internalType":"uint256"}],"outputs":[],"stateMutability":"payable"},{"type":"function","name":"getAccruedSupplyAmount","inputs":[{"name":"token","type":"address","internalType":"address"}],"outputs":[{"name":"price","type":"uint256","internalType":"uint256"}],"stateMutability":"view"},{"type":"function","name":"initializeLendingProtocol","inputs":[{"name":"addr","type":"address","internalType":"address"}],"outputs":[],"stateMutability":"payable"},{"type":"function","name":"liquidate","inputs":[{"name":"borrower","type":"address","internalType":"address"},{"name":"token","type":"address","internalType":"address"},{"name":"amount","type":"uint256","internalType":"uint256"}],"outputs":[],"stateMutability":"nonpayable"},{"type":"function","name":"oracle","inputs":[],"outputs":[{"name":"","type":"address","internalType":"contract IPriceOracle"}],"stateMutability":"view"},{"type":"function","name":"repay","inputs":[{"name":"token","type":"address","internalType":"address"},{"name":"amount","type":"uint256","internalType":"uint256"}],"outputs":[],"stateMutability":"nonpayable"},{"type":"function","name":"usdc","inputs":[],"outputs":[{"name":"","type":"address","internalType":"contract IERC20"}],"stateMutability":"view"},{"type":"function","name":"withdraw","inputs":[{"name":"token","type":"address","internalType":"address"},{"name":"amount","type":"uint256","internalType":"uint256"}],"outputs":[],"stateMutability":"nonpayable"}],"bytecode":{"object":"0x6080604052670de444324c2a8000600755670de0b6b6e3e52b00600855348015602757600080fd5b50604051611089380380611089833981016040819052604491608b565b600080546001600160a01b039384166001600160a01b0319918216179091556001805492909316911617905560c0565b6001600160a01b0381168114608857600080fd5b50565b60008060408385031215609d57600080fd5b825160a6816074565b602084015190925060b5816074565b809150509250929050565b610fba806100cf6000396000f3fe60806040526004361061008a5760003560e01c80634b8a3529116100595780634b8a35291461014057806353415e44146101605780637dc0d1d01461018e5780638f1e9779146101ae578063f3fef3a3146101c157600080fd5b806322867d78146100ae57806326c01303146100d05780633e413bee146100f057806347e7ef241461012d57600080fd5b366100a95734600260008282546100a19190610def565b925050819055005b600080fd5b3480156100ba57600080fd5b506100ce6100c9366004610e1f565b6101e1565b005b3480156100dc57600080fd5b506100ce6100eb366004610e49565b6102e4565b3480156100fc57600080fd5b50600154610110906001600160a01b031681565b6040516001600160a01b0390911681526020015b60405180910390f35b6100ce61013b366004610e1f565b61047f565b34801561014c57600080fd5b506100ce61015b366004610e1f565b6105aa565b34801561016c57600080fd5b5061018061017b366004610e86565b6107f1565b604051908152602001610124565b34801561019a57600080fd5b50600054610110906001600160a01b031681565b6100ce6101bc366004610e86565b61082d565b3480156101cd57600080fd5b506100ce6101dc366004610e1f565b6108b6565b6101ea33610ba1565b336000908152600560205260409020548111156102445760405162461bcd60e51b8152602060048201526013602482015272496e73756666696369656e7420737570706c7960681b60448201526064015b60405180910390fd5b3360009081526005602052604081208054839290610263908490610ea8565b90915550506040516323b872dd60e01b8152336004820152306024820152604481018290526001600160a01b038316906323b872dd906064016020604051808303816000875af11580156102bb573d6000803e3d6000fd5b505050506040513d601f19601f820116820180604052508101906102df9190610ebb565b505050565b6102ed83610ba1565b6000806102f8610c39565b6001600160a01b038716600090815260056020526040812054929450909250908390610325908490610edd565b61032f9190610ef4565b6001600160a01b03871660009081526006602090815260408083205460059092528220549293509161036390600490610ef4565b90506004610372836003610edd565b61037c9190610ef4565b831161038757600080fd5b8086111561039457600080fd5b8461039f8588610edd565b6103a99190610ef4565b6001600160a01b038916600090815260066020526040812080549091906103d1908490610ea8565b90915550506001600160a01b038816600090815260056020526040812080548892906103fe908490610ea8565b909155505060405163a9059cbb60e01b8152336004820152602481018790526001600160a01b0388169063a9059cbb906044016020604051808303816000875af1158015610450573d6000803e3d6000fd5b505050506040513d601f19601f820116820180604052508101906104749190610ebb565b505050505050505050565b6001600160a01b038216610528578034146104d15760405162461bcd60e51b8152602060048201526012602482015271125b9d985b1a590811551208185b5bdd5b9d60721b604482015260640161023b565b33600090815260066020526040812080543492906104f0908490610def565b9091555050336000908152600660205260408120436001909101556002805483929061051d908490610def565b909155506105a69050565b6000811161056e5760405162461bcd60e51b8152602060048201526013602482015272125b9d985b1a59081d5cd918c8185b5bdd5b9d606a1b604482015260640161023b565b336000908152600460205260408120805483929061058d908490610def565b9250508190555080600260008282546102639190610def565b5050565b6105b333610ba1565b6000806105be610c39565b336000908152600660205260408120549294509092509060029083906105e5908690610edd565b6105ef9190610ef4565b6105f99190610ef4565b3360009081526005602052604081205491925090610618908690610def565b9050808210156106645760405162461bcd60e51b8152602060048201526017602482015276125b9cdd59999a58da595b9d0818dbdb1b185d195c985b604a1b604482015260640161023b565b6040516370a0823160e01b815230600482015285906001600160a01b038816906370a0823190602401602060405180830381865afa1580156106aa573d6000803e3d6000fd5b505050506040513d601f19601f820116820180604052508101906106ce9190610f16565b10156107125760405162461bcd60e51b8152602060048201526013602482015272125b9cdd59999a58da595b9d08185b5bdd5b9d606a1b604482015260640161023b565b60408051808201825260078152666c656e64696e6760c81b6020808301919091523360009081526005909152919091205461074d9190610d1f565b3360009081526005602052604081204360018201558054879290610772908490610def565b909155505060405163a9059cbb60e01b8152336004820152602481018690526001600160a01b0387169063a9059cbb906044016020604051808303816000875af11580156107c4573d6000803e3d6000fd5b505050506040513d601f19601f820116820180604052508101906107e89190610ebb565b50505050505050565b60006001600160a01b0382166108165750503360009081526006602052604090205490565b50336000908152600460205260409020545b919050565b600180546001600160a01b0319166001600160a01b0383169081179091556040516323b872dd60e01b81523360048201523060248201523460448201526323b872dd906064016020604051808303816000875af1158015610892573d6000803e3d6000fd5b505050506040513d601f19601f820116820180604052508101906105a69190610ebb565b6108bf33610ba1565b6000806108ca610c39565b90925090506001600160a01b038416610ab1573360009081526006602052604090205483111561092f5760405162461bcd60e51b815260206004820152601060248201526f092dce6eaccccd2c6d2cadce8408aa8960831b604482015260640161023b565b3360009081526006602052604081205461094a908590610ea8565b3360009081526005602052604081205491925090849061096b908590610edd565b6109759190610ef4565b90506109b26040518060400160405280600d81526020016c031b7b63630ba32b930b6101d1609d1b8152508360036109ad9190610edd565b610d1f565b60408051808201909152600881526703b30b63ab2901d160c51b60208201526109e0906109ad836004610edd565b6109eb826003610edd565b6109f6826004610edd565b1115610a3e5760405162461bcd60e51b8152602060048201526017602482015276125b9cdd59999a58da595b9d0818dbdb1b185d195c985b604a1b604482015260640161023b565b3360009081526006602052604081208054879290610a5d908490610ea8565b909155505060405133908690600081818185875af1925050503d8060008114610aa2576040519150601f19603f3d011682016040523d82523d6000602084013e610aa7565b606091505b5050505050610b9b565b33600090815260046020526040902054831115610b045760405162461bcd60e51b8152602060048201526011602482015270496e73756666696369656e74207573646360781b604482015260640161023b565b3360009081526004602052604081208054859290610b23908490610ea8565b909155505060405163a9059cbb60e01b8152336004820152602481018490526001600160a01b0385169063a9059cbb906044016020604051808303816000875af1158015610b75573d6000803e3d6000fd5b505050506040513d601f19601f82011682018060405250810190610b999190610ebb565b505b50505050565b6001600160a01b038116600090815260056020526040812060010154610bc79043610ea8565b610bd290600c610edd565b905080156105a6576001600160a01b038216600090815260056020526040812054600854610c0291908490610d64565b6001600160a01b038416600090815260056020526040812080549293508392909190610c2f908490610def565b9091555050505050565b600080546040516341976e0960e01b81526004810183905282916001600160a01b0316906341976e0990602401602060405180830381865afa158015610c83573d6000803e3d6000fd5b505050506040513d601f19601f82011682018060405250810190610ca79190610f16565b6000546001546040516341976e0960e01b81526001600160a01b03918216600482015292945016906341976e0990602401602060405180830381865afa158015610cf5573d6000803e3d6000fd5b505050506040513d601f19601f82011682018060405250810190610d199190610f16565b90509091565b6105a68282604051602401610d35929190610f2f565b60408051601f198184030181529190526020810180516001600160e01b03166309710a9d60e41b179052610dac565b600083815b84811015610d9857670de0b6b3a7640000610d848584610edd565b610d8e9190610ef4565b9150600101610d69565b50610da38582610ea8565b95945050505050565b610db581610db8565b50565b80516a636f6e736f6c652e6c6f67602083016000808483855afa5050505050565b634e487b7160e01b600052601160045260246000fd5b80820180821115610e0257610e02610dd9565b92915050565b80356001600160a01b038116811461082857600080fd5b60008060408385031215610e3257600080fd5b610e3b83610e08565b946020939093013593505050565b600080600060608486031215610e5e57600080fd5b610e6784610e08565b9250610e7560208501610e08565b929592945050506040919091013590565b600060208284031215610e9857600080fd5b610ea182610e08565b9392505050565b81810381811115610e0257610e02610dd9565b600060208284031215610ecd57600080fd5b81518015158114610ea157600080fd5b8082028115828204841417610e0257610e02610dd9565b600082610f1157634e487b7160e01b600052601260045260246000fd5b500490565b600060208284031215610f2857600080fd5b5051919050565b604081526000835180604084015260005b81811015610f5d5760208187018101516060868401015201610f40565b506000606082850101526060601f19601f830116840101915050826020830152939250505056fea26469706673582212203486f8b23abaa518d75db71dbc796c2ea0b5f36d24240e0b252986c1b2a1812f64736f6c634300081a0033","linkReferences":{}},"methodIdentifiers":{"borrow(address,uint256)":"4b8a3529","deposit(address,uint256)":"47e7ef24","getAccruedSupplyAmount(address)":"53415e44","initializeLendingProtocol(address)":"8f1e9779","liquidate(address,address,uint256)":"26c01303","oracle()":"7dc0d1d0","repay(address,uint256)":"22867d78","usdc()":"3e413bee","withdraw(address,uint256)":"f3fef3a3"},"id":28}