{"abi":[{"type":"constructor","inputs":[{"name":"target_oracle","type":"address","internalType":"contract IPriceOracle"},{"name":"usdcAddress","type":"address","internalType":"address"}],"stateMutability":"nonpayable"},{"type":"receive","stateMutability":"payable"},{"type":"function","name":"borrow","inputs":[{"name":"token","type":"address","internalType":"address"},{"name":"amount","type":"uint256","internalType":"uint256"}],"outputs":[],"stateMutability":"nonpayable"},{"type":"function","name":"deposit","inputs":[{"name":"token","type":"address","internalType":"address"},{"name":"amount","type":"uint256","internalType":"uint256"}],"outputs":[],"stateMutability":"payable"},{"type":"function","name":"getAccruedSupplyAmount","inputs":[{"name":"token","type":"address","internalType":"address"}],"outputs":[{"name":"price","type":"uint256","internalType":"uint256"}],"stateMutability":"nonpayable"},{"type":"function","name":"initializeLendingProtocol","inputs":[{"name":"addr","type":"address","internalType":"address"}],"outputs":[],"stateMutability":"payable"},{"type":"function","name":"liquidate","inputs":[{"name":"borrower","type":"address","internalType":"address"},{"name":"token","type":"address","internalType":"address"},{"name":"amount","type":"uint256","internalType":"uint256"}],"outputs":[],"stateMutability":"nonpayable"},{"type":"function","name":"oracle","inputs":[],"outputs":[{"name":"","type":"address","internalType":"contract IPriceOracle"}],"stateMutability":"view"},{"type":"function","name":"repay","inputs":[{"name":"token","type":"address","internalType":"address"},{"name":"amount","type":"uint256","internalType":"uint256"}],"outputs":[],"stateMutability":"nonpayable"},{"type":"function","name":"usdc","inputs":[],"outputs":[{"name":"","type":"address","internalType":"contract IERC20"}],"stateMutability":"view"},{"type":"function","name":"withdraw","inputs":[{"name":"token","type":"address","internalType":"address"},{"name":"amount","type":"uint256","internalType":"uint256"}],"outputs":[],"stateMutability":"nonpayable"}],"bytecode":{"object":"0x6080604052670de444324c2a8000600955670de0b6d3f9ad790c600a55348015602757600080fd5b50604051611291380380611291833981016040819052604491608b565b600080546001600160a01b039384166001600160a01b0319918216179091556001805492909316911617905560c0565b6001600160a01b0381168114608857600080fd5b50565b60008060408385031215609d57600080fd5b825160a6816074565b602084015190925060b5816074565b809150509250929050565b6111c2806100cf6000396000f3fe60806040526004361061008a5760003560e01c80634b8a3529116100595780634b8a35291461012857806353415e44146101485780637dc0d1d0146101765780638f1e977914610196578063f3fef3a3146101a957600080fd5b806322867d781461009657806326c01303146100b85780633e413bee146100d857806347e7ef241461011557600080fd5b3661009157005b600080fd5b3480156100a257600080fd5b506100b66100b1366004610fc6565b6101c9565b005b3480156100c457600080fd5b506100b66100d3366004610ff0565b6102e6565b3480156100e457600080fd5b506001546100f8906001600160a01b031681565b6040516001600160a01b0390911681526020015b60405180910390f35b6100b6610123366004610fc6565b610499565b34801561013457600080fd5b506100b6610143366004610fc6565b61066d565b34801561015457600080fd5b5061016861016336600461102d565b6108d0565b60405190815260200161010c565b34801561018257600080fd5b506000546100f8906001600160a01b031681565b6100b66101a436600461102d565b61092c565b3480156101b557600080fd5b506100b66101c4366004610fc6565b6109b5565b6101d233610c37565b3360009081526007602052604090205481111561022c5760405162461bcd60e51b8152602060048201526013602482015272496e73756666696369656e7420737570706c7960681b60448201526064015b60405180910390fd5b336000908152600760205260408120805483929061024b908490611065565b9250508190555080600260008282546102649190611065565b90915550506040516323b872dd60e01b8152336004820152306024820152604481018290526001600160a01b038316906323b872dd906064015b6020604051808303816000875af11580156102bd573d6000803e3d6000fd5b505050506040513d601f19601f820116820180604052508101906102e1919061107e565b505050565b6102ef83610c37565b6000806102fa610d6b565b6001600160a01b0387166000908152600760205260408120549294509092509083906103279084906110a0565b61033191906110cd565b6001600160a01b038716600090815260086020908152604080832054600790925282205492935091610365906004906110cd565b905060046103748360036110a0565b61037e91906110cd565b831161038957600080fd5b8086111561039657600080fd5b85600260008282546103a89190611065565b909155508590506103b985886110a0565b6103c391906110cd565b6001600160a01b038916600090815260086020526040812080549091906103eb908490611065565b90915550506001600160a01b03881660009081526007602052604081208054889290610418908490611065565b909155505060405163a9059cbb60e01b8152336004820152602481018790526001600160a01b0388169063a9059cbb906044016020604051808303816000875af115801561046a573d6000803e3d6000fd5b505050506040513d601f19601f8201168201806040525081019061048e919061107e565b505050505050505050565b6001600160a01b038216610529578034146104eb5760405162461bcd60e51b8152602060048201526012602482015271125b9d985b1a590811551208185b5bdd5b9d60721b6044820152606401610223565b336000908152600860205260408120805434929061050a9084906110e1565b9091555050336000908152600860205260409020436001909101555050565b6000811161056f5760405162461bcd60e51b8152602060048201526013602482015272125b9d985b1a59081d5cd918c8185b5bdd5b9d606a1b6044820152606401610223565b3360009081526006602052604081205490036105c857600380546001810182556000919091527fc2575a0e9e593c00f959f8c92f12db2869c3395a3b0502d05e2516446f71f85b0180546001600160a01b031916331790555b33600090815260066020526040812080548392906105e79084906110e1565b92505081905550806002600082825461060091906110e1565b92505081905550610630604051806040016040528060058152602001641d1bdd185b60da1b815250600254610e51565b6040516323b872dd60e01b8152336004820152306024820152604481018290526001600160a01b038316906323b872dd9060640161029e565b5050565b61067633610c37565b600080610681610d6b565b336000908152600860205260408120549294509092509060029083906106a89086906110a0565b6106b291906110cd565b6106bc91906110cd565b33600090815260076020526040812054919250906106db9086906110e1565b9050808210156107275760405162461bcd60e51b8152602060048201526017602482015276125b9cdd59999a58da595b9d0818dbdb1b185d195c985b604a1b6044820152606401610223565b6040516370a0823160e01b815230600482015285906001600160a01b038816906370a0823190602401602060405180830381865afa15801561076d573d6000803e3d6000fd5b505050506040513d601f19601f8201168201806040525081019061079191906110f4565b10156107d55760405162461bcd60e51b8152602060048201526013602482015272125b9cdd59999a58da595b9d08185b5bdd5b9d606a1b6044820152606401610223565b33600090815260076020526040812043600182015580548792906107fa9084906110e1565b92505081905550846005600082825461081391906110e1565b9091555050604080518082018252600a81526903632b73234b733901d160b51b602080830191909152336000908152600790915291909120546108569190610e51565b60405163a9059cbb60e01b8152336004820152602481018690526001600160a01b0387169063a9059cbb906044016020604051808303816000875af11580156108a3573d6000803e3d6000fd5b505050506040513d601f19601f820116820180604052508101906108c7919061107e565b50505050505050565b60006108db33610c37565b6001600160a01b0382166108fe5750503360009081526008602052604090205490565b3360009081526004602090815260408083205460069092529091205461092491906110e1565b90505b919050565b600180546001600160a01b0319166001600160a01b0383169081179091556040516323b872dd60e01b81523360048201523060248201523460448201526323b872dd906064016020604051808303816000875af1158015610991573d6000803e3d6000fd5b505050506040513d601f19601f82011682018060405250810190610669919061107e565b6109be33610c37565b6000806109c9610d6b565b90925090506001600160a01b038416610b475733600090815260086020526040902054831115610a2e5760405162461bcd60e51b815260206004820152601060248201526f092dce6eaccccd2c6d2cadce8408aa8960831b6044820152606401610223565b33600090815260086020526040812054610a49908590611065565b33600090815260076020526040812054919250908490610a6a9085906110a0565b610a7491906110cd565b9050610a818260036110a0565b610a8c8260046110a0565b1115610ad45760405162461bcd60e51b8152602060048201526017602482015276125b9cdd59999a58da595b9d0818dbdb1b185d195c985b604a1b6044820152606401610223565b3360009081526008602052604081208054879290610af3908490611065565b909155505060405133908690600081818185875af1925050503d8060008114610b38576040519150601f19603f3d011682016040523d82523d6000602084013e610b3d565b606091505b5050505050610c31565b33600090815260066020526040902054831115610b9a5760405162461bcd60e51b8152602060048201526011602482015270496e73756666696369656e74207573646360781b6044820152606401610223565b3360009081526006602052604081208054859290610bb9908490611065565b909155505060405163a9059cbb60e01b8152336004820152602481018490526001600160a01b0385169063a9059cbb906044016020604051808303816000875af1158015610c0b573d6000803e3d6000fd5b505050506040513d601f19601f82011682018060405250810190610c2f919061107e565b505b50505050565b6001600160a01b038116600090815260076020526040812060010154610c5d9043611065565b90506000610c6d611c20836110cd565b90506000610c7d611c208461110d565b9050610ca46040518060400160405280600381526020016206761760ec1b81525084610e51565b8215610c31576000610cbb60055484600954610e96565b6001600160a01b038616600090815260076020526040812080549293508392909190610ce89084906110e1565b90915550610cf7905081610ede565b6000610d0860055484600a54610e96565b6001600160a01b038716600090815260076020526040812080549293508392909190610d359084906110e1565b90915550610d44905081610ede565b50506001600160a01b03841660009081526007602052604090204360019091015550505050565b600080546040516341976e0960e01b81526004810183905282916001600160a01b0316906341976e0990602401602060405180830381865afa158015610db5573d6000803e3d6000fd5b505050506040513d601f19601f82011682018060405250810190610dd991906110f4565b6000546001546040516341976e0960e01b81526001600160a01b03918216600482015292945016906341976e0990602401602060405180830381865afa158015610e27573d6000803e3d6000fd5b505050506040513d601f19601f82011682018060405250810190610e4b91906110f4565b90509091565b6106698282604051602401610e67929190611121565b60408051601f198184030181529190526020810180516001600160e01b03166309710a9d60e41b179052610f82565b600083815b84811015610eca57670de0b6b3a7640000610eb685846110a0565b610ec091906110cd565b9150600101610e9b565b50610ed58582611065565b95945050505050565b60005b60035481101561066957600060038281548110610f0057610f00611176565b60009182526020808320909101546002546001600160a01b039091168084526006909252604083205491935090610f389086906110a0565b610f4291906110cd565b6001600160a01b038316600090815260046020526040812080549293508392909190610f6f9084906110e1565b909155505060019092019150610ee19050565b610f8b81610f8e565b50565b80516a636f6e736f6c652e6c6f67602083016000808483855afa5050505050565b80356001600160a01b038116811461092757600080fd5b60008060408385031215610fd957600080fd5b610fe283610faf565b946020939093013593505050565b60008060006060848603121561100557600080fd5b61100e84610faf565b925061101c60208501610faf565b929592945050506040919091013590565b60006020828403121561103f57600080fd5b61104882610faf565b9392505050565b634e487b7160e01b600052601160045260246000fd5b818103818111156110785761107861104f565b92915050565b60006020828403121561109057600080fd5b8151801515811461104857600080fd5b80820281158282048414176110785761107861104f565b634e487b7160e01b600052601260045260246000fd5b6000826110dc576110dc6110b7565b500490565b808201808211156110785761107861104f565b60006020828403121561110657600080fd5b5051919050565b60008261111c5761111c6110b7565b500690565b604081526000835180604084015260005b8181101561114f5760208187018101516060868401015201611132565b506000606082850101526060601f19601f8301168401019150508260208301529392505050565b634e487b7160e01b600052603260045260246000fdfea2646970667358221220e273f0c07c799f61b3204180ec568dbcc4e153b25d8aa10a9d4c7b9bc01e215364736f6c634300081a0033","linkReferences":{}},"methodIdentifiers":{"borrow(address,uint256)":"4b8a3529","deposit(address,uint256)":"47e7ef24","getAccruedSupplyAmount(address)":"53415e44","initializeLendingProtocol(address)":"8f1e9779","liquidate(address,address,uint256)":"26c01303","oracle()":"7dc0d1d0","repay(address,uint256)":"22867d78","usdc()":"3e413bee","withdraw(address,uint256)":"f3fef3a3"},"id":28}