{"abi":[{"type":"constructor","inputs":[{"name":"target_oracle","type":"address","internalType":"contract IPriceOracle"},{"name":"usdcAddress","type":"address","internalType":"address"}],"stateMutability":"nonpayable"},{"type":"receive","stateMutability":"payable"},{"type":"function","name":"BLOCKS_PER_DAY","inputs":[],"outputs":[{"name":"","type":"uint256","internalType":"uint256"}],"stateMutability":"view"},{"type":"function","name":"DAILY_RATE","inputs":[],"outputs":[{"name":"","type":"uint256","internalType":"uint256"}],"stateMutability":"view"},{"type":"function","name":"LendingBalance","inputs":[{"name":"","type":"address","internalType":"address"}],"outputs":[{"name":"amount","type":"uint256","internalType":"uint256"},{"name":"time","type":"uint256","internalType":"uint256"}],"stateMutability":"view"},{"type":"function","name":"borrow","inputs":[{"name":"token","type":"address","internalType":"address"},{"name":"amount","type":"uint256","internalType":"uint256"}],"outputs":[],"stateMutability":"nonpayable"},{"type":"function","name":"deposit","inputs":[{"name":"token","type":"address","internalType":"address"},{"name":"amount","type":"uint256","internalType":"uint256"}],"outputs":[],"stateMutability":"payable"},{"type":"function","name":"depositETH","inputs":[{"name":"","type":"address","internalType":"address"}],"outputs":[{"name":"amount","type":"uint256","internalType":"uint256"},{"name":"time","type":"uint256","internalType":"uint256"}],"stateMutability":"view"},{"type":"function","name":"depositUSDC","inputs":[{"name":"","type":"address","internalType":"address"}],"outputs":[{"name":"","type":"uint256","internalType":"uint256"}],"stateMutability":"view"},{"type":"function","name":"getAccruedSupplyAmount","inputs":[{"name":"token","type":"address","internalType":"address"}],"outputs":[{"name":"price","type":"uint256","internalType":"uint256"}],"stateMutability":"view"},{"type":"function","name":"initializeLendingProtocol","inputs":[{"name":"addr","type":"address","internalType":"address"}],"outputs":[],"stateMutability":"payable"},{"type":"function","name":"liquidate","inputs":[{"name":"borrower","type":"address","internalType":"address"},{"name":"token","type":"address","internalType":"address"},{"name":"amount","type":"uint256","internalType":"uint256"}],"outputs":[],"stateMutability":"nonpayable"},{"type":"function","name":"oracle","inputs":[],"outputs":[{"name":"","type":"address","internalType":"contract IPriceOracle"}],"stateMutability":"view"},{"type":"function","name":"repay","inputs":[{"name":"token","type":"address","internalType":"address"},{"name":"amount","type":"uint256","internalType":"uint256"}],"outputs":[],"stateMutability":"nonpayable"},{"type":"function","name":"usdc","inputs":[],"outputs":[{"name":"","type":"address","internalType":"contract IERC20"}],"stateMutability":"view"},{"type":"function","name":"withdraw","inputs":[{"name":"token","type":"address","internalType":"address"},{"name":"amount","type":"uint256","internalType":"uint256"}],"outputs":[],"stateMutability":"nonpayable"}],"bytecode":{"object":"0x6080604052348015600f57600080fd5b50604051611088380380611088833981016040819052602c916073565b600080546001600160a01b039384166001600160a01b0319918216179091556001805492909316911617905560a8565b6001600160a01b0381168114607057600080fd5b50565b60008060408385031215608557600080fd5b8251608e81605c565b6020840151909250609d81605c565b809150509250929050565b610fd1806100b76000396000f3fe6080604052600436106100e15760003560e01c806353415e441161007f5780637dc0d1d0116100595780637dc0d1d01461028c5780638f1e9779146102ac578063ce4d7bbd146102bf578063f3fef3a3146102f357600080fd5b806353415e441461023b5780636bb987fe1461025b578063736848561461027157600080fd5b80633e413bee116100bb5780633e413bee146101955780634436896a146101cd57806347e7ef24146102085780634b8a35291461021b57600080fd5b806322867d781461010557806326c01303146101275780632d2da8061461014757600080fd5b366101005734600260008282546100f89190610e5b565b925050819055005b600080fd5b34801561011157600080fd5b50610125610120366004610e8b565b610313565b005b34801561013357600080fd5b50610125610142366004610eb5565b610416565b34801561015357600080fd5b5061017b610162366004610ef2565b6005602052600090815260409020805460019091015482565b604080519283526020830191909152015b60405180910390f35b3480156101a157600080fd5b506001546101b5906001600160a01b031681565b6040516001600160a01b03909116815260200161018c565b3480156101d957600080fd5b506101fa6101e8366004610ef2565b60036020526000908152604090205481565b60405190815260200161018c565b610125610216366004610e8b565b6105b1565b34801561022757600080fd5b50610125610236366004610e8b565b6106c4565b34801561024757600080fd5b506101fa610256366004610ef2565b6108d3565b34801561026757600080fd5b506101fa611c2081565b34801561027d57600080fd5b506101fa66038d7ea4c6800081565b34801561029857600080fd5b506000546101b5906001600160a01b031681565b6101256102ba366004610ef2565b61090f565b3480156102cb57600080fd5b5061017b6102da366004610ef2565b6004602052600090815260409020805460019091015482565b3480156102ff57600080fd5b5061012561030e366004610e8b565b610998565b61031c33610c81565b336000908152600460205260409020548111156103765760405162461bcd60e51b8152602060048201526013602482015272496e73756666696369656e7420737570706c7960681b60448201526064015b60405180910390fd5b3360009081526004602052604081208054839290610395908490610f14565b90915550506040516323b872dd60e01b8152336004820152306024820152604481018290526001600160a01b038316906323b872dd906064016020604051808303816000875af11580156103ed573d6000803e3d6000fd5b505050506040513d601f19601f820116820180604052508101906104119190610f27565b505050565b61041f83610c81565b60008061042a610cf8565b6001600160a01b038716600090815260046020526040812054929450909250908390610457908490610f49565b6104619190610f60565b6001600160a01b03871660009081526005602090815260408083205460049283905290832054939450926104959190610f60565b905060046104a4836003610f49565b6104ae9190610f60565b83116104b957600080fd5b808611156104c657600080fd5b846104d18588610f49565b6104db9190610f60565b6001600160a01b03891660009081526005602052604081208054909190610503908490610f14565b90915550506001600160a01b03881660009081526004602052604081208054889290610530908490610f14565b909155505060405163a9059cbb60e01b8152336004820152602481018790526001600160a01b0388169063a9059cbb906044016020604051808303816000875af1158015610582573d6000803e3d6000fd5b505050506040513d601f19601f820116820180604052508101906105a69190610f27565b505050505050505050565b6001600160a01b038216610642578034146106045760405162461bcd60e51b815260206004820152601360248201527208aa89040c2dadeeadce840dad2e6dac2e8c6d606b1b604482015260640161036d565b3360009081526005602052604081208054349290610623908490610e5b565b9091555050336000908152600560205260409020436001909101555050565b600081116106885760405162461bcd60e51b8152602060048201526013602482015272125b9d985b1a59081554d110c8185b5bdd5b9d606a1b604482015260640161036d565b33600090815260036020526040812080548392906106a7908490610e5b565b9250508190555080600260008282546103959190610e5b565b5050565b6106cd33610c81565b6000806106d8610cf8565b336000908152600560205260408120549294509092509060029083906106ff908690610f49565b6107099190610f60565b6107139190610f60565b3360009081526004602052604081205491925090610732908690610e5b565b90508082101561077e5760405162461bcd60e51b8152602060048201526017602482015276125b9cdd59999a58da595b9d0818dbdb1b185d195c985b604a1b604482015260640161036d565b6040516370a0823160e01b815230600482015285906001600160a01b038816906370a0823190602401602060405180830381865afa1580156107c4573d6000803e3d6000fd5b505050506040513d601f19601f820116820180604052508101906107e89190610f82565b101561082f5760405162461bcd60e51b8152602060048201526016602482015275496e73756666696369656e74206c697175696469747960501b604482015260640161036d565b3360009081526004602052604081204360018201558054879290610854908490610e5b565b909155505060405163a9059cbb60e01b8152336004820152602481018690526001600160a01b0387169063a9059cbb906044016020604051808303816000875af11580156108a6573d6000803e3d6000fd5b505050506040513d601f19601f820116820180604052508101906108ca9190610f27565b50505050505050565b60006001600160a01b0382166108f85750503360009081526005602052604090205490565b50336000908152600360205260409020545b919050565b600180546001600160a01b0319166001600160a01b0383169081179091556040516323b872dd60e01b81523360048201523060248201523460448201526323b872dd906064016020604051808303816000875af1158015610974573d6000803e3d6000fd5b505050506040513d601f19601f820116820180604052508101906106c09190610f27565b6109a133610c81565b6000806109ac610cf8565b90925090506001600160a01b038416610b915733600090815260056020526040902054831115610a115760405162461bcd60e51b815260206004820152601060248201526f092dce6eaccccd2c6d2cadce8408aa8960831b604482015260640161036d565b33600090815260056020526040812054670de0b6b3a7640000908490610a38908790610f14565b610a429190610f49565b610a4c9190610f60565b33600090815260046020526040812054919250908490610a6d908590610f49565b610a779190610f60565b9050610a8481604b610f49565b610a8f836064610f49565b1015610ad75760405162461bcd60e51b8152602060048201526017602482015276125b9cdd59999a58da595b9d0818dbdb1b185d195c985b604a1b604482015260640161036d565b3360009081526005602052604081208054879290610af6908490610f14565b9091555050604051600090339087908381818185875af1925050503d8060008114610b3d576040519150601f19603f3d011682016040523d82523d6000602084013e610b42565b606091505b5050905080610b895760405162461bcd60e51b8152602060048201526013602482015272115512081d1c985b9cd9995c8819985a5b1959606a1b604482015260640161036d565b505050610c7b565b33600090815260036020526040902054831115610be45760405162461bcd60e51b8152602060048201526011602482015270496e73756666696369656e74205553444360781b604482015260640161036d565b3360009081526003602052604081208054859290610c03908490610f14565b909155505060405163a9059cbb60e01b8152336004820152602481018490526001600160a01b0385169063a9059cbb906044016020604051808303816000875af1158015610c55573d6000803e3d6000fd5b505050506040513d601f19601f82011682018060405250810190610c799190610f27565b505b50505050565b6001600160a01b038116600090815260046020526040812060010154610ca79043610f14565b905080156106c0576001600160a01b038216600090815260046020526040902054610cd29082610dde565b6001600160a01b0383166000908152600460205260409020908155436001909101555050565b600080546040516341976e0960e01b81526004810183905282916001600160a01b0316906341976e0990602401602060405180830381865afa158015610d42573d6000803e3d6000fd5b505050506040513d601f19601f82011682018060405250810190610d669190610f82565b6000546001546040516341976e0960e01b81526001600160a01b03918216600482015292945016906341976e0990602401602060405180830381865afa158015610db4573d6000803e3d6000fd5b505050506040513d601f19601f82011682018060405250810190610dd89190610f82565b90509091565b600080610df4611c2066038d7ea4c68000610f60565b610e0690670de0b6b3a7640000610e5b565b905083915060005b83811015610e3d57670de0b6b3a7640000610e298385610f49565b610e339190610f60565b9250600101610e0e565b505092915050565b634e487b7160e01b600052601160045260246000fd5b80820180821115610e6e57610e6e610e45565b92915050565b80356001600160a01b038116811461090a57600080fd5b60008060408385031215610e9e57600080fd5b610ea783610e74565b946020939093013593505050565b600080600060608486031215610eca57600080fd5b610ed384610e74565b9250610ee160208501610e74565b929592945050506040919091013590565b600060208284031215610f0457600080fd5b610f0d82610e74565b9392505050565b81810381811115610e6e57610e6e610e45565b600060208284031215610f3957600080fd5b81518015158114610f0d57600080fd5b8082028115828204841417610e6e57610e6e610e45565b600082610f7d57634e487b7160e01b600052601260045260246000fd5b500490565b600060208284031215610f9457600080fd5b505191905056fea2646970667358221220e4b40f68a249b4fae469bd80575794cb97f37b078df175dc318c2313d82b795664736f6c634300081a0033","linkReferences":{}},"methodIdentifiers":{"BLOCKS_PER_DAY()":"6bb987fe","DAILY_RATE()":"73684856","LendingBalance(address)":"ce4d7bbd","borrow(address,uint256)":"4b8a3529","deposit(address,uint256)":"47e7ef24","depositETH(address)":"2d2da806","depositUSDC(address)":"4436896a","getAccruedSupplyAmount(address)":"53415e44","initializeLendingProtocol(address)":"8f1e9779","liquidate(address,address,uint256)":"26c01303","oracle()":"7dc0d1d0","repay(address,uint256)":"22867d78","usdc()":"3e413bee","withdraw(address,uint256)":"f3fef3a3"},"id":29}